:100000000C9447010C946F010C946F010C946F01D8
:100010000C946F010C946F010C946F010C946F01A0
:100020000C946F010C946F010C94CD080C943C0956
:100030000C946F010C946F010C946F010C946F0180
:100040000C946F010C946F010C946F010C946F0170
:100050000C946F010C946F010C946F010C94C90BFC
:100060000C946F010C946F010C946F010C946F0150
:100070000C946F010C946F010C946F010C946F0140
:100080000C946E0B0C946F010C946F010C946F0127
:100090000C946F010C946F010C946F010C946F0120
:1000A0000C946F010C946F010C946F01070605040A
:1000B0000100080A0B0C0D090000000024002700B5
:1000C0002A002D0030000000000200090F0000038C
:1000D0000401000C0000000000000000000000000F
:1000E0000000000000080B000202020000090400EA
:1000F0000001020200000524001001052401010195
:1001000004240206052406000107058103100040AF
:1001100009040100020A0000000705020240000075
:10012000070583024000000403090412010002EFE6
:100130000201404123368000010102030141726443
:1001400075696E6F204C4C430041726475696E6F27
:10015000204C656F6E6172646F00040802011040EC
:100160008040102040804080080204018040201020
:1001700002011080102040402000000000250028CF
:10018000002B002E003100040404040403040502C3
:100190000202020403020202020606060606060422
:1001A0000402020204040300000000000000002A10
:1001B0002B280000000000000000000000000000EC
:1001C000000000000000002C9EB4A0A1A2A434A650
:1001D000A7A5AE362D3738271E1F20212223242520
:1001E00026B333B62EB7B89F8485868788898A8BD5
:1001F0008C8D8E8F909192939495969798999A9BC7
:100200009C9D2F3130A3AD350405060708090A0B64
:100210000C0D0E0F101112131415161718191A1BA6
:100220001C1DAFB1B0B50005010906A1018502058D
:100230000719E029E7150025017501950881029548
:1002400001750881039506750815002573050719C2
:100250000029738100C005010902A1010901A10063
:10026000850105091901290315002501950375016B
:1002700081029501750581030501093009310938AD
:100280001581257F750895038106C0C0130C1124C4
:100290001FBECFEFDAE0DEBFCDBF11E0A0E0B1E0DE
:1002A000E0E1FDE102C005900D92AE34B107D9F74F
:1002B00022E0AEE4B1E001C01D92AD31B207E1F73A
:1002C00011E0C7E4D1E004C02197FE010E945E0E58
:1002D000C634D107C9F70E94CB0C0C94860E0C943F
:1002E0000000FC0180917201882311F13FB7F8945E
:1002F00082E08093E9002091F200822F90E01816AE
:10030000190614F481E090E0882339F0289844E637
:10031000409371014091F1004083222339F02091F4
:10032000F200211103C02BE62093E8003FBF08959F
:100330008FEF9FEF089540916A0150916B012091DA
:1003400068013091690142175307B4F49091E800B5
:100350009570E1F39091E80092FD19C08093F1004F
:1003600080916A0190916B0101968F739927892B77
:1003700019F48EEF8093E80080916A0190916B01EF
:10038000019690936B0180936A0181E0089580E06B
:100390000895EF92FF920F931F93CF93DF93F82E60
:1003A000192FE62E042F81E0860F880F0E949B01F3
:1003B00083E00E949B01CF2DD12FEC0EFD2EF11C6E
:1003C000CE15DF05B9F007FF13C0FE0184910E942E
:1003D0009B01182F80E00E949B01812321968111AF
:1003E000EFCFDF91CF911F910F91FF90EF90089584
:1003F0008881EDCF81E0F5CFDF92EF92FF920F93EE
:100400001F93CF93DF93D82E8A01EB017B01E40E7B
:10041000F51ECE15DF0559F0D7FE12C0FE018491FE
:100420000E949B0121968111F4CF0FEF1FEFC801AD
:10043000DF91CF911F910F91FF90EF90DF90089582
:100440008881EECF2FB7F89487708093E900909160
:10045000E800892F807295FF04C09091F20080E43B
:10046000891B2FBF0895615030F02091F100FC01ED
:1004700020830196F8CF289884E68093710108952F
:100480008091600181110DC082E080935C0184E065
:1004900080935D0110925F0110925E0181E0809374
:1004A00060018CE591E00895CF93DF9381E0809324
:1004B000F9018093FA012FEF31E03093FC01209392
:1004C000FB011092FE011092FD0128E231E0309311
:1004D000F6012093F5011092010210920002109291
:1004E000030210920202809304028093050281ECC1
:1004F0008093FF010E944002FC0181819091F901EB
:10050000482F490F5527551F483051059CF5A281AA
:10051000B381109709F525EF31E0338322832081E1
:100520002093F7018093F8018091FA01820F808374
:100530002091FB01A22FB091FC018A2F821B891709
:10054000C8F481813D91C82FD0E0C45FDE4F38836D
:100550008F5F8183F2CFD90118962D913C91199725
:1005600021153105C1F725EF31E019963C932E9303
:100570001897D5CFDF91CF9108950F931F93CF9305
:10058000DF931F92CDB7DEB782E0898342E450E06B
:1005900065EE70E080E80E94FC010E944002DC01F0
:1005A00012960D911C910115110589F0D801ED915C
:1005B000FC910280F381E02DBE016F5F7F4FC80187
:1005C000099597FD04C0F80100851185ECCF89815C
:1005D0000F90DF91CF911F910F910895CF93DF93EB
:1005E0001F92CDB7DEB76983DC01ED91FC910280EB
:1005F000F381E02D41E050E0BE016F5F7F4F099530
:100600000F90DF91CF91089583E08093E90080916E
:10061000F200882319F08AE38093E800089583E0CC
:100620000E94220290E00895CF93DF931F92CDB7EE
:10063000DEB7FC018485958597FD08C02FEF3FEF5D
:10064000358724870F90DF91CF910895CE010196D1
:100650000E947101019719F4898190E0F3CF8FEF27
:100660009FEFF0CF0F931F93CF93DF931F92CDB7E0
:10067000DEB78C01FC018485958597FF0BC0CE0108
:1006800001960E947101019771F4898190E0F8014F
:1006900095878487F801848595850F90DF91CF91A8
:1006A0001F910F9108958FEF9FEFF1CFFC0184858B
:1006B000958597FD0BC09FB7F89482E08093E90081
:1006C0008091F2009FBF90E0019608959FB7F89443
:1006D00082E08093E9008091F2009FBF90E008954E
:1006E000282F30E0F901EA53FF4F9491F901E65ABF
:1006F000FE4F849129573E4FF9012491222309F49A
:1007000030C09923E9F091509F30D0F4E92FF0E008
:10071000E457FC4F0C945E0EBA03BE039B03B20376
:10072000B603A003A003A003C103C703CB03CF03F9
:10073000D503A003D903909180009F779093800008
:10074000E22FF0E0EE0FFF1FE758FE4FA591B491A6
:100750009FB7F894EC91611132C080958E238C93F1
:100760009FBF0895909180009F7DE8CF9091800079
:10077000977FE4CF94B59F7794BDE2CF94B59F7DEA
:10078000FBCF909190009F7790939000D9CF90915C
:1007900090009F7DF9CF90919000977FF5CF909139
:1007A000C0009F779093C000CBCF9091C0009F7DF9
:1007B000F9CF9091C200977F9093C200C1CF8E2B4A
:1007C000CECF9091130189130DC0E6EAF1E0E491D8
:1007D0009FEF90931301E13059F038F0E33071F05E
:1007E000E43091F060E00C94700310926E00FACF48
:1007F00090916F009D7F90936F00F4CF9091710066
:100800009D7F90937100EECF909172009F7B9093AB
:100810007200E8CFCF93DF9390E0FC01E65AFE4FE1
:10082000249189579E4FFC0184918823D1F090E058
:10083000880F991FFC01E854FF4FA591B491FC016A
:10084000E758FE4FC591D491623071F49FB7F89488
:100850003C91822F809583238C93E8812E2B2883D3
:100860009FBFDF91CF9108958FB7F894EC912E2B15
:100870002C938FBFF6CFCF92DF92EF92FF92CF9360
:100880006B0190911301891749F09F3F09F46AC0E9
:10089000CF91FF90EF90DF90CF900895E6EAF1E0DE
:1008A000C491C7FDF5CF61E00E940A04CC2319F082
:1008B000C23009F0F5C0F12CE12C68E478EE81E05B
:1008C00090E0A70196010E943F0EBA01A901415094
:1008D000510961097109CC2309F452C1C230A1F454
:1008E0004F3F51056105710599F294F264E274EF8E
:1008F00080E090E0A70196010E943F0EBA01A90195
:1009000041505109610971094F3F51056105710558
:1009100009F008F429C162E17AE780E090E0A701DC
:1009200096010E943F0EBA01A90141505109610987
:100930007109C11119C194E085B5887F892B85BDE6
:1009400047BD8FEF9FEFDC01809385019093860177
:10095000A0938701B093880180916E00826080939C
:100960006E0096CF80931301E6EAF1E0C491CF3F89
:1009700009F48ECFC13051F160F0C33009F448C0A2
:10098000C43009F46BC0C7FD83CF61E00E940A0444
:100990008FCF14BC15BC94B5926094BD95B5916091
:1009A00095BD282F30E0F901E957FE4FE491F0E0C2
:1009B000EE0FFF1FE758FE4F45915491F901E65A9B
:1009C000FE4FE491E0937801C0E06DCF109280007B
:1009D0001092810090918100986090938100909195
:1009E0008100916090938100282F30E0F901E95750
:1009F000FE4FE491F0E0EE0FFF1FE758FE4F4591E8
:100A00005491F901E65AFE4FE491E09377014BCF00
:100A100010929000109291009091910098609093A4
:100A2000910090919100916090939100282F30E077
:100A3000F901E957FE4FE491F0E0EE0FFF1FE75890
:100A4000FE4F459154915093760140937501F90101
:100A5000E65AFE4FE491E093740125CF1092C00056
:100A60001092C1009091C10098609093C100909144
:100A7000C10091609093C100282F30E0F901E9573F
:100A8000FE4FE491F0E0EE0FFF1FE758FE4F459157
:100A90005491F901E65AFE4FE491E093730103CFBC
:100AA000960150E040E060E072E18AE790E00E9449
:100AB0003F0EBA01A9014150510961097109C130C4
:100AC000D9F480918100887F816080938100509368
:100AD0008900409388008FEF9FEFDC0180938101B4
:100AE00090938201A0938301B093840180916F0061
:100AF000826080936F00CCCEC330D9F48091910096
:100B0000887F816080939100509399004093980072
:100B10008FEF9FEFDC0180937D0190937E01A09386
:100B20007F01B09380018091710082608093710099
:100B3000AFCEC430C9F48091C100887F81608093BA
:100B4000C1004093CF008FEF9FEFDC0180937901CC
:100B500090937A01A0937B01B0937C018091720005
:100B600080648093720094CEC13009F4B0CF1CF43D
:100B7000C1118ECEE5CEC33039F2C43011F388CE28
:100B800093E04F3F51056105710511F00CF0C3CEA4
:100B9000D3CE8251E82FF0E0E455FF4FE4919091DD
:100BA0007B008E2F880F880F80729F7D892B80930A
:100BB0007B00E770E064E0937C0080917A008064C1
:100BC00080937A0080917A0086FDFCCF8091780036
:100BD0009091790008953FB7F894809158019091D1
:100BE0005901A0915A01B0915B0126B5A89B05C09F
:100BF0002F3F19F00196A11DB11D3FBFBA2FA92F9C
:100C0000982F8827BC01CD01620F711D811D911D98
:100C100042E0660F771F881F991F4A95D1F7089504
:100C20008F929F92AF92BF92CF92DF92EF92FF92FC
:100C30004B015C010E94EB056B017C010E94EB05FE
:100C40006C197D098E099F09683E734081059105E5
:100C5000A8F321E0821A9108A108B10888EEC80E15
:100C600083E0D81EE11CF11C81149104A104B1049D
:100C700029F7FF90EF90DF90CF90BF90AF909F90BB
:100C80008F9008957F928F929F92AF92BF92CF9252
:100C9000DF92EF92FF920F931F93CF93DF93C82EB3
:100CA0008B017A0180917201811110C08FEF9FEF4B
:100CB000DF91CF911F910F91FF90EF90DF90CF9038
:100CC000BF90AF909F908F907F90089580916E011C
:100CD00080FF05C08091E00082608093E000CE2D0F
:100CE000DF2DD12C8AEFB82E8C2D8770982E8C2D6D
:100CF0008072882E8C2D8074782E9AE3A92E2097EE
:100D000019F4DD2009F452C08C2D0E9422028111B9
:100D10000AC0BA94BB2051F261E070E080E090E03C
:100D20000E941006ECCF8C171D0611F00CF08C2FD2
:100D30009FB7F8949092E9002091E80025FD02C049
:100D40009FBFDDCF282F30E0C21BD30B882029F0B6
:100D50008150A0F01092F100FBCFF801C7FC0AC04F
:100D6000815050F041914093F100FACF449140936B
:100D7000F10031968150D0F7020F131FDD2021F0D2
:100D8000A092E800D12CDCCF8091E80085FD07C05F
:100D9000A092E800DD24D394209791F2F3CF20971E
:100DA00079F6772069F2A092E800CACF5D9884E6D0
:100DB00080936D01C7017CCF0F931F93CF93DF9377
:100DC0001F92CDB7DEB78C0180910602811105C05C
:100DD0000E94540281E08093060282E0898341E010
:100DE00050E0BE016F5F7F4F8091F8010E94420684
:100DF00097FD08C08091F80148E050E0B801806498
:100E00000E9442060F90DF91CF911F910F9108959C
:100E1000CF93DF93EC0180910B01882331F083E0C5
:100E20000E9442061816190634F081E090E09B8378
:100E30008A8380E090E0DF91CF910895CF92DF9296
:100E4000EF92FF920F931F93CF93DF936C01EB010F
:100E50007B01E40EF51E10E000E0CE15DF0581F009
:100E600069916D30D1F3D601ED91FC910190F08143
:100E7000E02DC6010995892B19F00F5F1F4FEDCFAB
:100E8000C801DF91CF911F910F91FF90EF90DF90FC
:100E9000CF900895EF92FF921F93CF93DF93EC01D1
:100EA000162FE8E7E60F683888F4862F90E067FF92
:100EB00050C0FC01E058F10921E030E001C0220FF0
:100EC000EA95EAF78C81822B8C83E0E08E818E1785
:100ED000D9F08F81E817C1F08885E817A9F08985D6
:100EE000E81791F08A85E81779F08B85E81761F0AB
:100EF000DE01169690E080E02D9121115EC08C0FEE
:100F00009D1FDC011696EC93CE0104960E94DC0630
:100F1000EE24E394F12C183848F11858DE0186E0ED
:100F2000112341F016969C911697191303C016963B
:100F30001C921697815011968111F2CFCE01049622
:100F40000E94DC06C701DF91CF911F91FF90EF90C7
:100F50000895EC85FD85E80FF91FE491E11119C0B2
:100F600081E090E09B838A83F12CE12C812F90E03B
:100F700017FF2FC0FC01E058F10981E090E001C0AB
:100F8000880FEA95EAF780959C8189238C8310E08D
:100F9000C5CF8E2F807C803C49F48C8180648C830B
:100FA000EF73E23309F092CFE4E690CFE7FFF9CF99
:100FB0008C8182608C83EF77F4CF01968630910527
:100FC00009F09ACF81E090E09B838A83F12CE12C99
:100FD000A2CFEC85FD85E80FF91F1491112309F4C8
:100FE000B1CF812F807C803C49F48C818F7B8C83B6
:100FF0001F73123309F092CF14E690CF17FFF9CF89
:101000008C818D7F8C831F77F4CF089590E080E0F2
:101010000895DC01FB0112962C9112978481958131
:101020002817190641F491818081813A31F49D7F1E
:1010300081E0913009F080E008958132E1F79B3042
:1010400029F482811F968C9381E008959A3099F754
:10105000828150968C93F8CFDC01FB0188E4808379
:1010600089E4818384E482831D969C911D979F70FF
:101070009F5B93831D968D919C9124E09695879517
:101080002A95E1F78F708F5B848385E00895EF9256
:10109000FF920F931F93CF93DF93FB0120812138A1
:1010A00071F52381223259F5DC0112964C9124818D
:1010B00035814217130619F5EC010B851C85F12CBF
:1010C000E12C0115110589F0F801448155816281F7
:1010D000738180E80E94FC018F3F980749F0E80E79
:1010E000F91ED8010D911C91ECCF81E08F87C701CB
:1010F000DF91CF911F910F91FF90EF90089590E0B5
:1011000080E0F6CFCF93DF93CDB7DEB769970FB608
:10111000F894DEBF0FBECDBFFC01DB018C918F5F69
:101120008C939E012D5F3F4F8DE0D9011D928A95D2
:10113000E9F729E0298384E08A8391E09D8383E0B5
:101140008E832A8721E22B879C879D879F8722E2B7
:10115000288B27E02B8B25E02C8B8E8B20E430E036
:10116000388F2F8B998F82818B8395858685998B7C
:101170008A8B838180688D8B49E150E0BE016F5F6F
:101180007F4F80E00E94FC0169960FB6F894DEBFA5
:101190000FBECDBFDF91CF9108951F920F920FB672
:1011A0000F9211248F939F938091E1009091E10021
:1011B000937F9093E10083FF0FC01092E90091E0CC
:1011C0009093EB001092EC0092E39093ED0010925C
:1011D000720198E09093F00082FF22C093E0909318
:1011E000E9009091F200992319F09AE39093E800B6
:1011F00090916D01992341F090916D0191509093E0
:101200006D01911101C05D9A90917101992341F096
:1012100090917101915090937101911101C0289AA0
:1012200084FF18C08091E2008E7E81608093E2008E
:101230008091E1008F7E8093E10080916E018E7E2F
:10124000806180936E019F918F910F900FBE0F90E0
:101250001F90189580FFF7CF8091E2008E7E80610D
:101260008093E2008091E1008E7E8093E100809186
:101270006E018E7E8160E5CF1F920F920FB60F92A6
:101280001124CF92DF92EF92FF920F931F932F932F
:101290003F934F935F936F937F938F939F93AF93FE
:1012A000BF93EF93FF93CF93DF93CDB7DEB76C97E8
:1012B000DEBFCDBF1092E9008091E80083FF25C01A
:1012C00068E0CE0145960E94330282EF8093E800E9
:1012D0008D8987FF39C09091E80090FFFCCF982F4F
:1012E000907609F034C19E894F89588D2F89F88CEA
:1012F000911131C0803861F580916F018093F100C8
:101300001092F1008EEF8093E8006C960FB6F8947F
:10131000DEBF0FBECDBFDF91CF91FF91EF91BF91A7
:10132000AF919F918F917F916F915F914F913F917D
:101330002F911F910F91FF90EF90DF90CF900F9022
:101340000FBE0F901F9018959EEF9093E800C7CFA7
:101350001092F100D5CF913059F48111D3CF4130A3
:10136000510581F680916F018D7F80936F01CACF07
:10137000933049F48111C6CF4130510519F680915F
:101380006F018260F2CF953041F48091E80080FFD8
:10139000FCCF20682093E300B5CF963009F0A9C0B8
:1013A0000B8D1C8D22E01092E90010926B011092BF
:1013B0006A01F2122EC010926901109268010E9417
:1013C000BD021F8299E09983FA8291E09E8390EAA0
:1013D00098879AEF998720916A0130916B01275F76
:1013E0003F4F3C832B838D831092E90010926B0159
:1013F00010926A01109369010093680149E050E07E
:10140000BE016F5F7F4F80E00E94FC010E94BD0221
:1014100079CF10936901009368010E944002DC01BA
:1014200012960D911C910115110509F451C1D801B5
:10143000ED91FC910480F581E02DBE016B5E7F4F44
:10144000C8010995009709F03EC1F8010085118592
:10145000EACFF3E0FF120EC08F89882309F440C061
:10146000823061F440E860E189E491E00E94C901C2
:10147000811148CF81E28093EB0047CF813029F47E
:1014800040E86BE08DE391E0F1CF833099F70E9463
:101490004002DC011296ED90FC908E010F5F1F4F11
:1014A0006801E114F10479F0D701ED91FC91068017
:1014B000F781E02DB801C7010995080F111DF7014B
:1014C000E084F184EECFD8011C92F6010190002057
:1014D000E9F73197BF016C197D0940E0C601C6CF1D
:1014E00067E271E0FB01449150E080E80E94FC015A
:1014F00009CF973009F4BECF983021F481E0809372
:10150000F10000CF993009F0FDCE837009F0B2CF21
:10151000EDE0F1E081E031E096E32191222371F0EA
:101520008093E9003093EB00DF0111972C91209319
:10153000EC009093ED008F5F873079F78EE7809312
:10154000EA001092EA008F8980937201DBCE8B8DC6
:101550009C8D1092E90010926B0110926A01909399
:10156000690180936801898D811192C08E899D895E
:10157000913A49F4813209F07DCF47E050E064E0D0
:1015800071E080E0B3CF913209F074CF833269F417
:101590008F89988DB0E0A0E08093000190930101C5
:1015A000A0930201B0930301ADCE803269F4809123
:1015B000E80082FFFCCF67E084E091E00E94330204
:1015C0008BEF8093E8009ECE823209F09BCE8F890C
:1015D00080930B01EEEFFFE7859194918B3F9C4D3B
:1015E00051F1E0E0F8E08091040190910501A091B3
:1015F0000601B0910701803B9440A105B105F1F4CB
:1016000080910B0180FD1AC0EE3F8AE0F80789F552
:1016100087E797E7918380838091600080936C01D6
:1016200088E19BE00FB6F894A895809360000FBE08
:101630009093600067CEEEEFFAE0D5CF8081918184
:101640008737974709F05ECEA89580916000886142
:101650008093600080916C0180936000EE3F2AE0EF
:10166000F20789F08091FE0A9091FF0A91838083AE
:1016700049CE808191818737980751F29093FF0A74
:101680008093FE0AC5CF1092FF0A1092FE0A3ACE4E
:101690000E944002DC0112960D911C91011511056A
:1016A00009F4E8CED801ED91FC910190F081E02D94
:1016B000BE016B5E7F4FC8010995811123CEF801F1
:1016C00000851185EBCF181619060CF41BCED2CE6F
:1016D000F1E0FF12BECE6BE271E004CF1F920F92D9
:1016E0000FB60F9211248F939F93AF93BF93EF93F5
:1016F000FF9380917D0190917E01A0917F01B09137
:101700008001892B8A2B8B2BA1F190917401E091A0
:101710007501F091760180818927808380917D0118
:1017200090917E01A0917F01B09180011816190659
:101730001A061B069CF480917D0190917E01A09178
:101740007F01B09180010197A109B10980937D01CA
:1017500090937E01A0937F01B0938001FF91EF9160
:10176000BF91AF919F918F910F900FBE0F901F90DF
:101770001895809171008D7F809371008091740124
:10178000E0917501F09176019081809589238083A5
:10179000E5CF1F920F920FB60F9211242F933F9314
:1017A0008F939F93AF93BF93809154019091550174
:1017B000A0915601B09157013091530123E0230FBE
:1017C0002D3758F50196A11DB11D2093530180932B
:1017D000540190935501A0935601B0935701809105
:1017E000580190915901A0915A01B0915B01019665
:1017F000A11DB11D8093580190935901A0935A01E6
:10180000B0935B01BF91AF919F918F913F912F91C9
:101810000F900FBE0F901F90189526E8230F029689
:10182000A11DB11DD2CF10928C0110928B0188EEB8
:1018300093E0A0E0B0E080938D0190938E01A0939F
:101840008F01B093900184E391E090938A0180939B
:1018500089018FEF9FEF90939601809395011092ED
:10186000EA011092E90186E491E09093E801809307
:10187000E7018091DF01811113C01092DA0110920B
:10188000D90187E292E09093DC018093DB018FE243
:1018900090E09093DE018093DD0181E08093DF0191
:1018A00080910602811105C00E94540281E080935C
:1018B0000602E0910002F0910102309709F058C051
:1018C00089ED91E0909301028093000280910202E1
:1018D000909103022091DD013091DE01820F931F70
:1018E000909303028093020287EA91E09093F401BF
:1018F0008093F30110921C0280911402811113C095
:1019000010920F0210920E0286E592E0909311025F
:101910008093100286E390E090931302809312026A
:1019200081E08093140280910602811105C00E941B
:10193000540281E080930602E0910002F0910102DE
:10194000309701F58EE092E09093010280930002BF
:1019500080910202909103022091120230911302B1
:10196000820F931F90930302809302020895FC015B
:10197000808191810097D9F789ED91E091838083EF
:10198000A5CFFC01808191810097D9F78EE092E08C
:1019900091838083DDCF789484B5826084BD84B5E3
:1019A000816084BD85B5826085BD85B5816085BD5A
:1019B00080916E00816080936E0010928100809112
:1019C000810082608093810080918100816080939A
:1019D00081008091800081608093800080919100DF
:1019E000826080939100809191008160809391004A
:1019F000809190008160809390008091C10084600C
:101A00008093C1008091C10082608093C100809169
:101A1000C10081608093C1008091C3008160809388
:101A2000C3008091C00082608093C0008091C2009A
:101A300081608093C20080917A00846080937A00F4
:101A400080917A00826080937A0080917A00816030
:101A500080937A0080917A00806880937A00109257
:101A6000720110926F0110926E018091D700816017
:101A70008093D70080EA8093D80089B5806189BDC2
:101A800089B5826089BD09B400FEFDCF61E070E0D8
:101A900080E090E00E9410068091D8008F7C8061E9
:101AA0008093D8008091E000807F8093E000809157
:101AB000E1008E7E8093E1008DE08093E200559AF4
:101AC000209A8FEF9FEF909396018093950187EA7C
:101AD00091E09093F4018093F30161E082E00E9431
:101AE0000A0461E083E00E940A0461E084E00E944D
:101AF0000A0461E085E00E940A0461E082E00E943D
:101B0000700361E083E00E94700361E084E00E9462
:101B1000700361E085E00E94700362E085E10E944D
:101B20000A0462E084E10E940A0462E083E10E9408
:101B30000A0462E082E10E940A0461E086E00E94F9
:101B40000A0480E0E82E80E0F82E01E0C4E1D1E054
:101B500012E060E0812F0E94700385E10E94C905B8
:101B6000843F9140D4F4809170018111F6CF0093AD
:101B700070016B8187EE91E00E944A0768EC70E08B
:101B800086E00E943B0465E070E080E090E00E9407
:101B9000100686E00E94E103E0CF84E10E94C905BF
:101BA000843F9140D4F4809170018111F6CF00936D
:101BB00070016A8187EE91E00E944A0760E971E056
:101BC00086E00E943B0465E070E080E090E00E94C7
:101BD000100686E00E94E103E0CF83E10E94C90580
:101BE000843F9140D4F4809170018111F6CF00932D
:101BF0007001698187EE91E00E944A0768E572E012
:101C000086E00E943B0465E070E080E090E00E9486
:101C1000100686E00E94E103E0CF82E10E94C90540
:101C2000843F9140D4F4809170018111F6CF0093EC
:101C30007001688187EE91E00E944A0760E273E0DC
:101C400086E00E943B0465E070E080E090E00E9446
:101C5000100686E00E94E103E0CF1092700161E07F
:101C6000812F0E9470031F5F2496163009F071CFF8
:101C7000E114F10409F46ACF0E94000067CF052E39
:101C800097FB1EF400940E94560E57FD07D00E9449
:101C9000640E07FC03D04EF40C94560E50954095FC
:101CA000309521953F4F4F4F5F4F08959095809508
:101CB000709561957F4F8F4F9F4F0895EE0FFF1FD7
:101CC0000590F491E02D0994A1E21A2EAA1BBB1BEA
:101CD000FD010DC0AA1FBB1FEE1FFF1FA217B307F8
:101CE000E407F50720F0A21BB30BE40BF50B661F0E
:101CF000771F881F991F1A9469F7609570958095D2
:101D000090959B01AC01BD01CF010895F894FFCFE0
:101D1000FFFFFFFF00E100000000000000C1808124
:101D2000000000FF4142434445464748494A4B4C66
:101D30004D4E4F50000000000908820847082C084B
:101D400000000000EE0208070F030403560314030B
:0E1D50003203000000004A071E0706080508BF
:00000001FF
